{
  "contractName": "lottery",
  "abi": [
    {
      "inputs": [],
      "stateMutability": "nonpayable",
      "type": "constructor"
    },
    {
      "inputs": [],
      "name": "manager",
      "outputs": [
        {
          "internalType": "address",
          "name": "",
          "type": "address"
        }
      ],
      "stateMutability": "view",
      "type": "function"
    },
    {
      "inputs": [
        {
          "internalType": "uint256",
          "name": "",
          "type": "uint256"
        }
      ],
      "name": "players",
      "outputs": [
        {
          "internalType": "address payable",
          "name": "",
          "type": "address"
        }
      ],
      "stateMutability": "view",
      "type": "function"
    },
    {
      "inputs": [],
      "name": "enter",
      "outputs": [],
      "stateMutability": "payable",
      "type": "function"
    },
    {
      "inputs": [],
      "name": "pickWinner",
      "outputs": [],
      "stateMutability": "nonpayable",
      "type": "function"
    },
    {
      "inputs": [],
      "name": "getPlayers",
      "outputs": [
        {
          "internalType": "address payable[]",
          "name": "",
          "type": "address[]"
        }
      ],
      "stateMutability": "view",
      "type": "function"
    }
  ],
  "bytecode": "0x608060405234801561001057600080fd5b50336000806101000a81548173ffffffffffffffffffffffffffffffffffffffff021916908373ffffffffffffffffffffffffffffffffffffffff160217905550610e52806100606000396000f3fe60806040526004361061004a5760003560e01c8063481c6a751461004f5780635d495aea1461007a5780638b5b9ccc14610091578063e97dcb62146100bc578063f71d96cb146100c6575b600080fd5b34801561005b57600080fd5b50610064610103565b6040516100719190610ab7565b60405180910390f35b34801561008657600080fd5b5061008f610127565b005b34801561009d57600080fd5b506100a6610322565b6040516100b39190610aed565b60405180910390f35b6100c46103b0565b005b3480156100d257600080fd5b506100ed60048036038101906100e891906107c7565b61053d565b6040516100fa9190610ad2565b60405180910390f35b60008054906101000a900473ffffffffffffffffffffffffffffffffffffffff1681565b60008054906101000a900473ffffffffffffffffffffffffffffffffffffffff1673ffffffffffffffffffffffffffffffffffffffff163373ffffffffffffffffffffffffffffffffffffffff16146101b5576040517f08c379a00000000000000000000000000000000000000000000000000000000081526004016101ac90610b6f565b60405180910390fd5b60006001805490506101c561057c565b6101cf9190610d3f565b9050600030905060018281548110610210577f4e487b7100000000000000000000000000000000000000000000000000000000600052603260045260246000fd5b9060005260206000200160009054906101000a900473ffffffffffffffffffffffffffffffffffffffff1673ffffffffffffffffffffffffffffffffffffffff166108fc8273ffffffffffffffffffffffffffffffffffffffff16319081150290604051600060405180830381858888f19350505050158015610297573d6000803e3d6000fd5b50600067ffffffffffffffff8111156102d9577f4e487b7100000000000000000000000000000000000000000000000000000000600052604160045260246000fd5b6040519080825280602002602001820160405280156103075781602001602082028036833780820191505090505b506001908051906020019061031d9291906106cd565b505050565b606060018054806020026020016040519081016040528092919081815260200182805480156103a657602002820191906000526020600020905b8160009054906101000a900473ffffffffffffffffffffffffffffffffffffffff1673ffffffffffffffffffffffffffffffffffffffff168152602001906001019080831161035c575b5050505050905090565b60008054906101000a900473ffffffffffffffffffffffffffffffffffffffff1673ffffffffffffffffffffffffffffffffffffffff163373ffffffffffffffffffffffffffffffffffffffff16141561043f576040517f08c379a000000000000000000000000000000000000000000000000000000000815260040161043690610b4f565b60405180910390fd5b6000151561044b6105fa565b15151461048d576040517f08c379a000000000000000000000000000000000000000000000000000000000815260040161048490610b2f565b60405180910390fd5b670de0b6b3a76400003410156104d8576040517f08c379a00000000000000000000000000000000000000000000000000000000081526004016104cf90610b0f565b60405180910390fd5b6001339080600181540180825580915050600190039060005260206000200160009091909190916101000a81548173ffffffffffffffffffffffffffffffffffffffff021916908373ffffffffffffffffffffffffffffffffffffffff160217905550565b6001818154811061054d57600080fd5b906000526020600020016000915054906101000a900473ffffffffffffffffffffffffffffffffffffffff1681565b600060024443600160405160200161059693929190610a7e565b6040516020818303038152906040526040516105b29190610a67565b602060405180830381855afa1580156105cf573d6000803e3d6000fd5b5050506040513d601f19601f820116820180604052508101906105f2919061079e565b60001c905090565b600080600090505b6001805490508110156106c4573373ffffffffffffffffffffffffffffffffffffffff1660018281548110610660577f4e487b7100000000000000000000000000000000000000000000000000000000600052603260045260246000fd5b9060005260206000200160009054906101000a900473ffffffffffffffffffffffffffffffffffffffff1673ffffffffffffffffffffffffffffffffffffffff1614156106b15760019150506106ca565b80806106bc90610cec565b915050610602565b50600090505b90565b828054828255906000526020600020908101928215610746579160200282015b828111156107455782518260006101000a81548173ffffffffffffffffffffffffffffffffffffffff021916908373ffffffffffffffffffffffffffffffffffffffff160217905550916020019190600101906106ed565b5b5090506107539190610757565b5090565b5b80821115610770576000816000905550600101610758565b5090565b60008151905061078381610dee565b92915050565b60008135905061079881610e05565b92915050565b6000602082840312156107b057600080fd5b60006107be84828501610774565b91505092915050565b6000602082840312156107d957600080fd5b60006107e784828501610789565b91505092915050565b60006107fc8383610820565b60208301905092915050565b6000610814838361083e565b60208301905092915050565b61082981610c59565b82525050565b61083881610c59565b82525050565b61084781610c59565b82525050565b61085681610c47565b82525050565b600061086782610bb4565b6108718185610bef565b935061087c83610b8f565b8060005b838110156108ad57815161089488826107f0565b975061089f83610bd5565b925050600181019050610880565b5085935050505092915050565b60006108c582610bbf565b6108cf8185610c00565b93506108da83610b9f565b8060005b83811015610912576108ef82610dce565b6108f98882610808565b975061090483610be2565b9250506001810190506108de565b5085935050505092915050565b600061092a82610bca565b6109348185610c0b565b9350610944818560208601610c9f565b80840191505092915050565b600061095d601c83610c16565b91507f4d696e696d756d20616d6f756e74206d757374206265207061796564000000006000830152602082019050919050565b600061099d601683610c16565b91507f506c6179657220616c726561647920656e7465726564000000000000000000006000830152602082019050919050565b60006109dd601e83610c16565b91507f4d616e6765722043616e277420456e74657220746865206c6f747465727900006000830152602082019050919050565b6000610a1d601683610c16565b91507f6f6e6c79206d616e616765722063616e20646f206974000000000000000000006000830152602082019050919050565b610a61610a5c82610c95565b610d35565b82525050565b6000610a73828461091f565b915081905092915050565b6000610a8a8286610a50565b602082019150610a9a8285610a50565b602082019150610aaa82846108ba565b9150819050949350505050565b6000602082019050610acc600083018461084d565b92915050565b6000602082019050610ae7600083018461082f565b92915050565b60006020820190508181036000830152610b07818461085c565b905092915050565b60006020820190508181036000830152610b2881610950565b9050919050565b60006020820190508181036000830152610b4881610990565b9050919050565b60006020820190508181036000830152610b68816109d0565b9050919050565b60006020820190508181036000830152610b8881610a10565b9050919050565b6000819050602082019050919050565b60008190508160005260206000209050919050565b600081519050919050565b600081549050919050565b600081519050919050565b6000602082019050919050565b6000600182019050919050565b600082825260208201905092915050565b600081905092915050565b600081905092915050565b600082825260208201905092915050565b600073ffffffffffffffffffffffffffffffffffffffff82169050919050565b6000610c5282610c75565b9050919050565b6000610c6482610c75565b9050919050565b6000819050919050565b600073ffffffffffffffffffffffffffffffffffffffff82169050919050565b6000819050919050565b60005b83811015610cbd578082015181840152602081019050610ca2565b83811115610ccc576000848401525b50505050565b6000610ce5610ce083610de1565b610c27565b9050919050565b6000610cf782610c95565b91507fffffffffffffffffffffffffffffffffffffffffffffffffffffffffffffffff821415610d2a57610d29610d70565b5b600182019050919050565b6000819050919050565b6000610d4a82610c95565b9150610d5583610c95565b925082610d6557610d64610d9f565b5b828206905092915050565b7f4e487b7100000000000000000000000000000000000000000000000000000000600052601160045260246000fd5b7f4e487b7100000000000000000000000000000000000000000000000000000000600052601260045260246000fd5b6000610dda8254610cd2565b9050919050565b60008160001c9050919050565b610df781610c6b565b8114610e0257600080fd5b50565b610e0e81610c95565b8114610e1957600080fd5b5056fea264697066735822122077e322ce12b8e6dfb2a8b3bfd6c808a513d4cf4bd8d5b83e378168cd96c8fc2164736f6c63430008000033",
  "immutableReferences": {},
  "source": "// SPDX-License-Identifier: MIT\r\npragma solidity ^0.8.0;\r\ncontract lottery{\r\n    address public manager;\r\n    address payable[] public players;\r\n    constructor(){\r\n        manager = msg.sender;\r\n    }\r\n    function alreadyEntered() view private returns(bool) {\r\n        for(uint i=0;i<players.length;i++){\r\n            if(players[i]==msg.sender)\r\n            return true;\r\n        }\r\n        return false;\r\n    }\r\n    function enter() payable public {\r\n        require(msg.sender != manager,\"Manger Can't Enter the lottery\");\r\n        require(alreadyEntered() == false,\"Player already entered\");\r\n        require(msg.value >= 1 ether,\"Minimum amount must be payed\");\r\n        players.push(payable(msg.sender));\r\n    }\r\n    function random() view private returns(uint){\r\n        return uint(sha256(abi.encodePacked(block.difficulty,block.number,players)));\r\n    } \r\n    function pickWinner() public {\r\n        require(msg.sender == manager,\"only manager can do it\");\r\n        uint index = random()%players.length; //winner index(generated randomly)\r\n        address contractAddress = address(this);\r\n        players[index].transfer(contractAddress.balance);\r\n        players  =  new address payable[](0); //for reseting the lottery\r\n\r\n\r\n\r\n    }\r\n    function getPlayers()  view public returns ( address payable[] memory){\r\n        return players;\r\n    }\r\n}",
  "sourcePath": "I:\\Blockchain\\Solidity(Imp Contracts\\contracts\\lottery.sol",
  "compiler": {
    "name": "solc",
    "version": "0.8.0+commit.c7dfd78e.Emscripten.clang"
  },
  "schemaVersion": "3.4.14",
  "updatedAt": "2023-10-28T09:34:17.489Z",
  "devdoc": {
    "kind": "dev",
    "methods": {},
    "version": 1
  },
  "userdoc": {
    "kind": "user",
    "methods": {},
    "version": 1
  }
}